{
  "contractName": "ArrayTest",
  "abi": [
    {
      "constant": false,
      "inputs": [
        {
          "internalType": "bool",
          "name": "flag",
          "type": "bool"
        }
      ],
      "name": "inserirElemento",
      "outputs": [],
      "payable": false,
      "stateMutability": "nonpayable",
      "type": "function"
    },
    {
      "constant": false,
      "inputs": [],
      "name": "contaElemento",
      "outputs": [
        {
          "internalType": "uint256",
          "name": "",
          "type": "uint256"
        }
      ],
      "payable": false,
      "stateMutability": "nonpayable",
      "type": "function"
    },
    {
      "constant": false,
      "inputs": [],
      "name": "percorre",
      "outputs": [
        {
          "internalType": "uint256",
          "name": "",
          "type": "uint256"
        }
      ],
      "payable": false,
      "stateMutability": "nonpayable",
      "type": "function"
    },
    {
      "constant": false,
      "inputs": [],
      "name": "percorreConta",
      "outputs": [
        {
          "internalType": "uint256",
          "name": "",
          "type": "uint256"
        }
      ],
      "payable": false,
      "stateMutability": "nonpayable",
      "type": "function"
    }
  ],
  "bytecode": "0x608060405234801561001057600080fd5b506101b5806100206000396000f3fe608060405234801561001057600080fd5b506004361061004c5760003560e01c80635c61a5e714610051578063a7e469a71461006b578063c918e46314610073578063ed2fdbd31461007b575b600080fd5b61005961009c565b60408051918252519081900360200190f35b6100596100cb565b610059610128565b61009a6004803603602081101561009157600080fd5b5035151561012e565b005b6000805b6000548110156100c357600081815481106100b757fe5b506000526001016100a0565b600091505090565b600080805b60005482101561012257600082815481106100e757fe5b90600052602060002090602091828204019190069054906101000a900460ff161515600115151415610117576001015b6001909101906100d0565b91505090565b60005490565b60008054600181018255908052602081047f290decd9548b62a8d60345a988386fc84ba6bc95484008f6362f93160ef3e563018054921515601f9092166101000a91820260ff9092021990921617905556fea265627a7a723158207366651788a99cf5fb2afa91194c6986c3469c0486410afa1ba5bd3f7332fbc264736f6c63430005100032",
  "source": "pragma solidity ^0.5.0;\n\ncontract ArrayTest {\n    bool[] private array;\n\n    function inserirElemento(bool flag) public {\n        array.push(flag);\n    }\n\n    function contaElemento() public returns (uint){\n        return array.length;\n    }\n\n    function percorre() public returns(uint)  {\n        uint i;\n        for( i = 0; i < array.length; i++ ){\n            array[i];\n        }\n        return 0;\n    }\n\n    function percorreConta() public  returns(uint){\n        uint i;\n        uint j = 0;\n        for( i = 0; i < array.length; i++ ){\n            if( array[i] == true ){\n                j += 1;\n            }\n        }\n        return j;\n    }\n\n\n}",
  "sourcePath": "/home/ubuntu/ethereum-gas-price-study/ethereum network local/contracts/milestone_3/ArrayTest.sol",
  "compiler": {
    "name": "solc",
    "version": "0.5.16+commit.9c3226ce.Emscripten.clang"
  },
  "schemaVersion": "3.4.1",
  "updatedAt": "2021-05-30T17:19:42.703Z",
  "devdoc": {
    "methods": {}
  },
  "userdoc": {
    "methods": {}
  }
}