{
  "contractName": "MapTest",
  "abi": [
    {
      "constant": false,
      "inputs": [
        {
          "internalType": "bool",
          "name": "flag",
          "type": "bool"
        }
      ],
      "name": "inserirElemento",
      "outputs": [],
      "payable": false,
      "stateMutability": "nonpayable",
      "type": "function"
    },
    {
      "constant": false,
      "inputs": [],
      "name": "contaElemento",
      "outputs": [
        {
          "internalType": "uint256",
          "name": "",
          "type": "uint256"
        }
      ],
      "payable": false,
      "stateMutability": "nonpayable",
      "type": "function"
    },
    {
      "constant": false,
      "inputs": [],
      "name": "percorre",
      "outputs": [
        {
          "internalType": "uint256",
          "name": "",
          "type": "uint256"
        }
      ],
      "payable": false,
      "stateMutability": "nonpayable",
      "type": "function"
    },
    {
      "constant": false,
      "inputs": [],
      "name": "percorreConta",
      "outputs": [
        {
          "internalType": "uint256",
          "name": "",
          "type": "uint256"
        }
      ],
      "payable": false,
      "stateMutability": "nonpayable",
      "type": "function"
    }
  ],
  "bytecode": "0x60806040526000805534801561001457600080fd5b5061016a806100246000396000f3fe608060405234801561001057600080fd5b506004361061004c5760003560e01c80635c61a5e714610051578063a7e469a71461006b578063c918e46314610073578063ed2fdbd31461007b575b600080fd5b61005961009c565b60408051918252519081900360200190f35b6100596100c4565b610059610105565b61009a6004803603602081101561009157600080fd5b5035151561010b565b005b6000805b6000548110156100bc57600081905260016020819052016100a0565b600091505090565b600080805b6000548210156100ff5760008281526001602081905260409091205460ff16151514156100f4576001015b6001909101906100c9565b91505090565b60005490565b6000805481526001602081905260408220805460ff1916931515939093179092558054909101905556fea265627a7a7231582007db7dc499b91151305064a52d6c17b60ce7943b1fdd80c0efdbd48e0cf4e5d664736f6c63430005100032",
  "source": "pragma solidity ^0.5.0;\n\ncontract MapTest {\n    uint private size = 0;\n\n    mapping(uint => bool) private map;\n\n    function inserirElemento(bool flag) public {\n        map[size] = flag;\n        size++;\n    }\n\n    function contaElemento() public returns (uint){\n        return size;\n    }\n\n    function percorre() public returns(uint)  {\n        uint i;\n        for( i = 0; i < size; i++ ){\n            map[i];\n        }\n        return 0;\n    }\n\n    function percorreConta() public  returns(uint){\n        uint i;\n        uint j = 0;\n        for( i = 0; i < size; i++ ){\n            if( map[i] == true ){\n                j += 1;\n            }\n        }\n        return j;\n    }\n\n\n}",
  "sourcePath": "/home/ubuntu/ethereum-gas-price-study/ethereum network local/contracts/milestone_3/MapTest.sol",
  "compiler": {
    "name": "solc",
    "version": "0.5.16+commit.9c3226ce.Emscripten.clang"
  },
  "schemaVersion": "3.4.1",
  "updatedAt": "2021-05-30T17:19:24.778Z",
  "devdoc": {
    "methods": {}
  },
  "userdoc": {
    "methods": {}
  }
}