{
  "contractName": "Sum",
  "abi": [
    {
      "constant": true,
      "inputs": [
        {
          "name": "",
          "type": "uint256"
        }
      ],
      "name": "tasks",
      "outputs": [
        {
          "name": "id",
          "type": "uint256"
        },
        {
          "name": "content",
          "type": "string"
        },
        {
          "name": "value",
          "type": "uint256"
        },
        {
          "name": "completed",
          "type": "bool"
        }
      ],
      "payable": false,
      "stateMutability": "view",
      "type": "function",
      "signature": "0x8d977672"
    },
    {
      "constant": true,
      "inputs": [],
      "name": "taskCount",
      "outputs": [
        {
          "name": "",
          "type": "uint256"
        }
      ],
      "payable": false,
      "stateMutability": "view",
      "type": "function",
      "signature": "0xb6cb58a5"
    },
    {
      "inputs": [],
      "payable": false,
      "stateMutability": "nonpayable",
      "type": "constructor",
      "signature": "constructor"
    },
    {
      "anonymous": false,
      "inputs": [
        {
          "indexed": false,
          "name": "id",
          "type": "uint256"
        },
        {
          "indexed": false,
          "name": "content",
          "type": "string"
        },
        {
          "indexed": false,
          "name": "completed",
          "type": "bool"
        }
      ],
      "name": "TaskCreated",
      "type": "event",
      "signature": "0x05d0fb833127fc08168556d0e7ca9554fc3f6bc843b3b7d2bf1c35aea6bab660"
    },
    {
      "anonymous": false,
      "inputs": [
        {
          "indexed": false,
          "name": "id",
          "type": "uint256"
        },
        {
          "indexed": false,
          "name": "completed",
          "type": "bool"
        }
      ],
      "name": "TaskCompleted",
      "type": "event",
      "signature": "0xe21fa966ca5cd02748c0752352d18c48165e61cb55b4c29cccf924b5a95fcff1"
    },
    {
      "constant": false,
      "inputs": [
        {
          "name": "_content",
          "type": "string"
        }
      ],
      "name": "createTask",
      "outputs": [],
      "payable": false,
      "stateMutability": "nonpayable",
      "type": "function",
      "signature": "0x111002aa"
    },
    {
      "constant": false,
      "inputs": [
        {
          "name": "_content",
          "type": "string"
        },
        {
          "name": "j",
          "type": "uint256"
        }
      ],
      "name": "createTask2",
      "outputs": [],
      "payable": false,
      "stateMutability": "nonpayable",
      "type": "function",
      "signature": "0x50513338"
    },
    {
      "constant": false,
      "inputs": [],
      "name": "contJ",
      "outputs": [
        {
          "name": "",
          "type": "uint256"
        }
      ],
      "payable": false,
      "stateMutability": "nonpayable",
      "type": "function",
      "signature": "0x89bcb6a7"
    },
    {
      "constant": false,
      "inputs": [
        {
          "name": "_id",
          "type": "uint256"
        }
      ],
      "name": "toggleCompleted",
      "outputs": [],
      "payable": false,
      "stateMutability": "nonpayable",
      "type": "function",
      "signature": "0x455f5024"
    }
  ],
  "bytecode": "0x60806040526000805534801561001457600080fd5b5060408051808201909152601c81527f436865636b206f75742064617070756e69766572736974792e636f6d00000000602082015261005b90640100000000610060810204565b61026b565b600080546001018155805b60005481101561009d57600081815260016020526040902054600290061515610095576001820191505b60010161006b565b5060408051608081018252600080548083526020808401878152848601879052606085018490529183526001808252949092208351815590518051939491936100ee939285019291909101906101d0565b506040820151816002015560608201518160030160006101000a81548160ff0219169083151502179055509050507f05d0fb833127fc08168556d0e7ca9554fc3f6bc843b3b7d2bf1c35aea6bab660600054836000604051808481526020018060200183151515158152602001828103825284818151815260200191508051906020019080838360005b83811015610190578181015183820152602001610178565b50505050905090810190601f1680156101bd5780820380516001836020036101000a031916815260200191505b5094505050505060405180910390a15050565b828054600181600116156101000203166002900490600052602060002090601f016020900481019282601f1061021157805160ff191683800117855561023e565b8280016001018555821561023e579182015b8281111561023e578251825591602001919060010190610223565b5061024a92915061024e565b5090565b61026891905b8082111561024a5760008155600101610254565b90565b61082f8061027a6000396000f3fe6080604052600436106100775763ffffffff7c0100000000000000000000000000000000000000000000000000000000600035041663111002aa811461007c578063455f502414610131578063505133381461015b57806389bcb6a7146102105780638d97767214610237578063b6cb58a5146102ef575b600080fd5b34801561008857600080fd5b5061012f6004803603602081101561009f57600080fd5b8101906020810181356401000000008111156100ba57600080fd5b8201836020820111156100cc57600080fd5b803590602001918460018302840111640100000000831117156100ee57600080fd5b91908080601f016020809104026020016040519081016040528093929190818152602001838380828437600092019190915250929550610304945050505050565b005b34801561013d57600080fd5b5061012f6004803603602081101561015457600080fd5b5035610474565b34801561016757600080fd5b5061012f6004803603604081101561017e57600080fd5b81019060208101813564010000000081111561019957600080fd5b8201836020820111156101ab57600080fd5b803590602001918460018302840111640100000000831117156101cd57600080fd5b91908080601f01602080910402602001604051908101604052809392919081815260200183838082843760009201919091525092955050913592506105eb915050565b34801561021c57600080fd5b5061022561063f565b60408051918252519081900360200190f35b34801561024357600080fd5b506102616004803603602081101561025a57600080fd5b5035610684565b60408051858152908101839052811515606082015260806020808301828152865192840192909252855160a084019187019080838360005b838110156102b1578181015183820152602001610299565b50505050905090810190601f1680156102de5780820380516001836020036101000a031916815260200191505b509550505050505060405180910390f35b3480156102fb57600080fd5b5061022561073a565b600080546001018155805b60005481101561034157600081815260016020526040902054600290061515610339576001820191505b60010161030f565b50604080516080810182526000805480835260208084018781528486018790526060850184905291835260018082529490922083518155905180519394919361039293928501929190910190610740565b506040820151816002015560608201518160030160006101000a81548160ff0219169083151502179055509050507f05d0fb833127fc08168556d0e7ca9554fc3f6bc843b3b7d2bf1c35aea6bab660600054836000604051808481526020018060200183151515158152602001828103825284818151815260200191508051906020019080838360005b8381101561043457818101518382015260200161041c565b50505050905090810190601f1680156104615780820380516001836020036101000a031916815260200191505b5094505050505060405180910390a15050565b61047c6107be565b60008281526001602081815260409283902083516080810185528154815281840180548651600296821615610100026000190190911695909504601f810185900485028601850190965285855290949193858401939092908301828280156105255780601f106104fa57610100808354040283529160200191610525565b820191906000526020600020905b81548152906001019060200180831161050857829003601f168201915b5050509183525050600282015460208083019190915260039092015460ff16151560409182015260608301805115905260008581526001808452919020835181558383015180519495508594919361058293850192910190610740565b5060408281015160028301556060928301516003909201805460ff191692151592909217909155908201518151848152901515602082015281517fe21fa966ca5cd02748c0752352d18c48165e61cb55b4c29cccf924b5a95fcff1929181900390910190a15050565b60008054600190810180835560408051608081018252828152602080820188815282840188905260608301879052938652848152919094208451815591518051929361039293908501929190910190610740565b60008054600101815580805b60005481101561067d57600081815260016020526040902054600290061515610675576001820191505b60010161064b565b5090505b90565b600160208181526000928352604092839020805481840180548651600296821615610100026000190190911695909504601f810185900485028601850190965285855290949193929091908301828280156107205780601f106106f557610100808354040283529160200191610720565b820191906000526020600020905b81548152906001019060200180831161070357829003601f168201915b50505050600283015460039093015491929160ff16905084565b60005481565b828054600181600116156101000203166002900490600052602060002090601f016020900481019282601f1061078157805160ff19168380011785556107ae565b828001600101855582156107ae579182015b828111156107ae578251825591602001919060010190610793565b506107ba9291506107e9565b5090565b6080604051908101604052806000815260200160608152602001600081526020016000151581525090565b61068191905b808211156107ba57600081556001016107ef56fea165627a7a72305820a798df5468664071979f029d9fe71fe0113698d62cb1d857d72b180a990d7e900029",
  "source": "\npragma solidity ^0.5.0;\n\ncontract Sum {\n  uint public taskCount = 0;\n  \n  struct Task {\n    uint id;\n    string content;\n    uint256 value;\n    bool completed;\n  }\n\n  mapping(uint => Task) public tasks;\n\n  event TaskCreated(\n    uint id,\n    string content,\n    bool completed\n  );\n\n  event TaskCompleted(\n    uint id,\n    bool completed\n  );\n\n  constructor() public {\n    createTask(\"Check out dappuniversity.com\");\n  }\n\n  function createTask(string memory _content) public {\n    taskCount ++;\n\n    uint256 j = 0;\n    for (uint i=0; i<taskCount; i++) {\n      if(tasks[i].id % 2 == 0){\n        j +=1;\n      } \n    }\n\n    tasks[taskCount] = Task(taskCount, _content, j , false );\n    emit TaskCreated(taskCount, _content, false);\n  }\n\nfunction createTask2(string memory _content , uint256 j) public {\n    taskCount ++;\n\n    tasks[taskCount] = Task(taskCount, _content, j , false );\n    emit TaskCreated(taskCount, _content, false);\n  }\n\n  function contJ() public returns (uint256) {\n    taskCount ++;\n\n    uint256 j = 0;\n    for (uint i=0; i<taskCount; i++) {\n      if(tasks[i].id % 2 == 0){\n        j +=1;\n      } \n    }\n\n    return j;\n  }\n\n  function toggleCompleted(uint _id) public {\n    Task memory _task = tasks[_id];\n    _task.completed = !_task.completed;\n    tasks[_id] = _task;\n    emit TaskCompleted(_id, _task.completed);\n  }\n\n\n}",
  "sourcePath": "/home/pgc/Documents/eth-todo-list-meu/contracts/Sum.sol",
  "compiler": {
    "name": "solc",
    "version": "0.5.0+commit.1d4f565a.Emscripten.clang"
  },
  "schemaVersion": "3.0.1",
  "updatedAt": "2021-05-21T03:20:35.472Z",
  "devdoc": {
    "methods": {}
  },
  "userdoc": {
    "methods": {}
  }
}