{
  "contractName": "Teste1EscritaLeituraEscritaJunta",
  "abi": [
    {
      "constant": true,
      "inputs": [
        {
          "name": "",
          "type": "uint256"
        }
      ],
      "name": "tasks",
      "outputs": [
        {
          "name": "id",
          "type": "uint256"
        },
        {
          "name": "content",
          "type": "string"
        },
        {
          "name": "value",
          "type": "uint256"
        },
        {
          "name": "completed",
          "type": "bool"
        }
      ],
      "payable": false,
      "stateMutability": "view",
      "type": "function",
      "signature": "0x8d977672"
    },
    {
      "constant": true,
      "inputs": [],
      "name": "taskCount",
      "outputs": [
        {
          "name": "",
          "type": "uint256"
        }
      ],
      "payable": false,
      "stateMutability": "view",
      "type": "function",
      "signature": "0xb6cb58a5"
    },
    {
      "inputs": [],
      "payable": false,
      "stateMutability": "nonpayable",
      "type": "constructor",
      "signature": "constructor"
    },
    {
      "anonymous": false,
      "inputs": [
        {
          "indexed": false,
          "name": "id",
          "type": "uint256"
        },
        {
          "indexed": false,
          "name": "content",
          "type": "string"
        },
        {
          "indexed": false,
          "name": "completed",
          "type": "bool"
        }
      ],
      "name": "TaskCreated",
      "type": "event",
      "signature": "0x05d0fb833127fc08168556d0e7ca9554fc3f6bc843b3b7d2bf1c35aea6bab660"
    },
    {
      "anonymous": false,
      "inputs": [
        {
          "indexed": false,
          "name": "id",
          "type": "uint256"
        },
        {
          "indexed": false,
          "name": "completed",
          "type": "bool"
        }
      ],
      "name": "TaskCompleted",
      "type": "event",
      "signature": "0xe21fa966ca5cd02748c0752352d18c48165e61cb55b4c29cccf924b5a95fcff1"
    },
    {
      "constant": false,
      "inputs": [
        {
          "name": "_content",
          "type": "string"
        }
      ],
      "name": "createTask2",
      "outputs": [],
      "payable": false,
      "stateMutability": "nonpayable",
      "type": "function",
      "signature": "0x28e64d05"
    }
  ],
  "bytecode": "0x60806040526000805534801561001457600080fd5b5060408051808201909152601c81527f436865636b206f75742064617070756e69766572736974792e636f6d00000000602082015261005b90640100000000610060810204565b61026b565b600080546001018155805b60005481101561009d57600081815260016020526040902054600290061515610095576001820191505b60010161006b565b5060408051608081018252600080548083526020808401878152848601879052606085018490529183526001808252949092208351815590518051939491936100ee939285019291909101906101d0565b506040820151816002015560608201518160030160006101000a81548160ff0219169083151502179055509050507f05d0fb833127fc08168556d0e7ca9554fc3f6bc843b3b7d2bf1c35aea6bab660600054836000604051808481526020018060200183151515158152602001828103825284818151815260200191508051906020019080838360005b83811015610190578181015183820152602001610178565b50505050905090810190601f1680156101bd5780820380516001836020036101000a031916815260200191505b5094505050505060405180910390a15050565b828054600181600116156101000203166002900490600052602060002090601f016020900481019282601f1061021157805160ff191683800117855561023e565b8280016001018555821561023e579182015b8281111561023e578251825591602001919060010190610223565b5061024a92915061024e565b5090565b61026891905b8082111561024a5760008155600101610254565b90565b6104e28061027a6000396000f3fe6080604052600436106100565763ffffffff7c010000000000000000000000000000000000000000000000000000000060003504166328e64d05811461005b5780638d97767214610110578063b6cb58a5146101c8575b600080fd5b34801561006757600080fd5b5061010e6004803603602081101561007e57600080fd5b81019060208101813564010000000081111561009957600080fd5b8201836020820111156100ab57600080fd5b803590602001918460018302840111640100000000831117156100cd57600080fd5b91908080601f0160208091040260200160405190810160405280939291908181526020018383808284376000920191909152509295506101ef945050505050565b005b34801561011c57600080fd5b5061013a6004803603602081101561013357600080fd5b503561035f565b60408051858152908101839052811515606082015260806020808301828152865192840192909252855160a084019187019080838360005b8381101561018a578181015183820152602001610172565b50505050905090810190601f1680156101b75780820380516001836020036101000a031916815260200191505b509550505050505060405180910390f35b3480156101d457600080fd5b506101dd610415565b60408051918252519081900360200190f35b600080546001018155805b60005481101561022c57600081815260016020526040902054600290061515610224576001820191505b6001016101fa565b50604080516080810182526000805480835260208084018781528486018790526060850184905291835260018082529490922083518155905180519394919361027d9392850192919091019061041b565b506040820151816002015560608201518160030160006101000a81548160ff0219169083151502179055509050507f05d0fb833127fc08168556d0e7ca9554fc3f6bc843b3b7d2bf1c35aea6bab660600054836000604051808481526020018060200183151515158152602001828103825284818151815260200191508051906020019080838360005b8381101561031f578181015183820152602001610307565b50505050905090810190601f16801561034c5780820380516001836020036101000a031916815260200191505b5094505050505060405180910390a15050565b600160208181526000928352604092839020805481840180548651600296821615610100026000190190911695909504601f810185900485028601850190965285855290949193929091908301828280156103fb5780601f106103d0576101008083540402835291602001916103fb565b820191906000526020600020905b8154815290600101906020018083116103de57829003601f168201915b50505050600283015460039093015491929160ff16905084565b60005481565b828054600181600116156101000203166002900490600052602060002090601f016020900481019282601f1061045c57805160ff1916838001178555610489565b82800160010185558215610489579182015b8281111561048957825182559160200191906001019061046e565b50610495929150610499565b5090565b6104b391905b80821115610495576000815560010161049f565b9056fea165627a7a7230582077eb4e92f483a7fc89d8a286a6214cb95c2c75c2ba964ff8cc753d8600c8a65c0029",
  "source": "\npragma solidity ^0.5.0;\n\ncontract Teste1EscritaLeituraEscritaJunta {\n  uint public taskCount = 0;\n  \n  struct Task {\n    uint id;\n    string content;\n    uint256 value;\n    bool completed;\n  }\n\n  mapping(uint => Task) public tasks;\n\n  event TaskCreated(\n    uint id,\n    string content,\n    bool completed\n  );\n\n  event TaskCompleted(\n    uint id,\n    bool completed\n  );\n\n  constructor() public {\n    createTask2(\"Check out dappuniversity.com\");\n  }\n\n  function createTask2(string memory _content) public {\n    taskCount ++;\n\n    uint256 j = 0;\n    for (uint i=0; i<taskCount; i++) {\n      if(tasks[i].id % 2 == 0){\n        j +=1;\n      } \n    }\n\n    tasks[taskCount] = Task(taskCount, _content, j , false );\n    emit TaskCreated(taskCount, _content, false);\n  }\n\n}",
  "sourcePath": "/home/pgc/Documents/ethereum-gas-price-study/ethereum network local/contracts/teste_1/Teste1LeituraEscritaJunta.sol",
  "compiler": {
    "name": "solc",
    "version": "0.5.0+commit.1d4f565a.Emscripten.clang"
  },
  "schemaVersion": "3.0.1",
  "updatedAt": "2021-05-26T03:39:32.698Z",
  "devdoc": {
    "methods": {}
  },
  "userdoc": {
    "methods": {}
  }
}