{
  "contractName": "Teste1EscritaLeituraEscritaJunta",
  "abi": [
    {
      "inputs": [],
      "payable": false,
      "stateMutability": "nonpayable",
      "type": "constructor"
    },
    {
      "anonymous": false,
      "inputs": [
        {
          "indexed": false,
          "internalType": "uint256",
          "name": "id",
          "type": "uint256"
        },
        {
          "indexed": false,
          "internalType": "bool",
          "name": "completed",
          "type": "bool"
        }
      ],
      "name": "TaskCompleted",
      "type": "event"
    },
    {
      "anonymous": false,
      "inputs": [
        {
          "indexed": false,
          "internalType": "uint256",
          "name": "id",
          "type": "uint256"
        },
        {
          "indexed": false,
          "internalType": "string",
          "name": "content",
          "type": "string"
        },
        {
          "indexed": false,
          "internalType": "bool",
          "name": "completed",
          "type": "bool"
        }
      ],
      "name": "TaskCreated",
      "type": "event"
    },
    {
      "constant": true,
      "inputs": [],
      "name": "taskCount",
      "outputs": [
        {
          "internalType": "uint256",
          "name": "",
          "type": "uint256"
        }
      ],
      "payable": false,
      "stateMutability": "view",
      "type": "function"
    },
    {
      "constant": true,
      "inputs": [
        {
          "internalType": "uint256",
          "name": "",
          "type": "uint256"
        }
      ],
      "name": "tasks",
      "outputs": [
        {
          "internalType": "uint256",
          "name": "id",
          "type": "uint256"
        },
        {
          "internalType": "string",
          "name": "content",
          "type": "string"
        },
        {
          "internalType": "uint256",
          "name": "value",
          "type": "uint256"
        },
        {
          "internalType": "bool",
          "name": "completed",
          "type": "bool"
        }
      ],
      "payable": false,
      "stateMutability": "view",
      "type": "function"
    },
    {
      "constant": false,
      "inputs": [
        {
          "internalType": "string",
          "name": "_content",
          "type": "string"
        }
      ],
      "name": "createTask2",
      "outputs": [],
      "payable": false,
      "stateMutability": "nonpayable",
      "type": "function"
    }
  ],
  "bytecode": "0x60806040526000805534801561001457600080fd5b5060408051808201909152601c81527f436865636b206f75742064617070756e69766572736974792e636f6d00000000602082015261005b906001600160e01b0361006016565b610269565b600080546001018155805b60005481101561009b5760008181526001602052604090205460029006610093576001820191505b60010161006b565b5060408051608081018252600080548083526020808401878152848601879052606085018490529183526001808252949092208351815590518051939491936100ec939285019291909101906101ce565b506040820151816002015560608201518160030160006101000a81548160ff0219169083151502179055509050507f05d0fb833127fc08168556d0e7ca9554fc3f6bc843b3b7d2bf1c35aea6bab660600054836000604051808481526020018060200183151515158152602001828103825284818151815260200191508051906020019080838360005b8381101561018e578181015183820152602001610176565b50505050905090810190601f1680156101bb5780820380516001836020036101000a031916815260200191505b5094505050505060405180910390a15050565b828054600181600116156101000203166002900490600052602060002090601f016020900481019282601f1061020f57805160ff191683800117855561023c565b8280016001018555821561023c579182015b8281111561023c578251825591602001919060010190610221565b5061024892915061024c565b5090565b61026691905b808211156102485760008155600101610252565b90565b6104ad806102786000396000f3fe608060405234801561001057600080fd5b50600436106100415760003560e01c806328e64d05146100465780638d977672146100ee578063b6cb58a514610199575b600080fd5b6100ec6004803603602081101561005c57600080fd5b81019060208101813564010000000081111561007757600080fd5b82018360208201111561008957600080fd5b803590602001918460018302840111640100000000831117156100ab57600080fd5b91908080601f0160208091040260200160405190810160405280939291908181526020018383808284376000920191909152509295506101b3945050505050565b005b61010b6004803603602081101561010457600080fd5b5035610321565b60408051858152908101839052811515606082015260806020808301828152865192840192909252855160a084019187019080838360005b8381101561015b578181015183820152602001610143565b50505050905090810190601f1680156101885780820380516001836020036101000a031916815260200191505b509550505050505060405180910390f35b6101a16103d7565b60408051918252519081900360200190f35b600080546001018155805b6000548110156101ee57600081815260016020526040902054600290066101e6576001820191505b6001016101be565b50604080516080810182526000805480835260208084018781528486018790526060850184905291835260018082529490922083518155905180519394919361023f939285019291909101906103dd565b506040820151816002015560608201518160030160006101000a81548160ff0219169083151502179055509050507f05d0fb833127fc08168556d0e7ca9554fc3f6bc843b3b7d2bf1c35aea6bab660600054836000604051808481526020018060200183151515158152602001828103825284818151815260200191508051906020019080838360005b838110156102e15781810151838201526020016102c9565b50505050905090810190601f16801561030e5780820380516001836020036101000a031916815260200191505b5094505050505060405180910390a15050565b600160208181526000928352604092839020805481840180548651600296821615610100026000190190911695909504601f810185900485028601850190965285855290949193929091908301828280156103bd5780601f10610392576101008083540402835291602001916103bd565b820191906000526020600020905b8154815290600101906020018083116103a057829003601f168201915b50505050600283015460039093015491929160ff16905084565b60005481565b828054600181600116156101000203166002900490600052602060002090601f016020900481019282601f1061041e57805160ff191683800117855561044b565b8280016001018555821561044b579182015b8281111561044b578251825591602001919060010190610430565b5061045792915061045b565b5090565b61047591905b808211156104575760008155600101610461565b9056fea265627a7a723158206c70f852f8c967304ebcbf1fb1bccf5c8ce3256ecc62ce2370f64b0e7f3c124664736f6c63430005100032",
  "source": "\npragma solidity ^0.5.0;\n\ncontract Teste1EscritaLeituraEscritaJunta {\n  uint public taskCount = 0;\n  \n  struct Task {\n    uint id;\n    string content;\n    uint256 value;\n    bool completed;\n  }\n\n  mapping(uint => Task) public tasks;\n\n  event TaskCreated(\n    uint id,\n    string content,\n    bool completed\n  );\n\n  event TaskCompleted(\n    uint id,\n    bool completed\n  );\n\n  constructor() public {\n    createTask2(\"Check out dappuniversity.com\");\n  }\n\n  function createTask2(string memory _content) public {\n    taskCount ++;\n\n    uint256 j = 0;\n    for (uint i=0; i<taskCount; i++) {\n      if(tasks[i].id % 2 == 0){\n        j +=1;\n      } \n    }\n\n    tasks[taskCount] = Task(taskCount, _content, j , false );\n    emit TaskCreated(taskCount, _content, false);\n  }\n\n}",
  "sourcePath": "/home/ubuntu/ethereum-gas-price-study/ethereum network local/contracts/teste_1/Teste1LeituraEscritaJunta.sol",
  "compiler": {
    "name": "solc",
    "version": "0.5.16+commit.9c3226ce.Emscripten.clang"
  },
  "schemaVersion": "3.4.1",
  "updatedAt": "2021-05-30T15:23:51.599Z",
  "networkType": "ethereum",
  "devdoc": {
    "methods": {}
  },
  "userdoc": {
    "methods": {}
  }
}