{
  "contractName": "Teste1EscritaLeituraEscritaSeparada",
  "abi": [
    {
      "inputs": [],
      "payable": false,
      "stateMutability": "nonpayable",
      "type": "constructor"
    },
    {
      "anonymous": false,
      "inputs": [
        {
          "indexed": false,
          "internalType": "uint256",
          "name": "id",
          "type": "uint256"
        },
        {
          "indexed": false,
          "internalType": "bool",
          "name": "completed",
          "type": "bool"
        }
      ],
      "name": "TaskCompleted",
      "type": "event"
    },
    {
      "anonymous": false,
      "inputs": [
        {
          "indexed": false,
          "internalType": "uint256",
          "name": "id",
          "type": "uint256"
        },
        {
          "indexed": false,
          "internalType": "string",
          "name": "content",
          "type": "string"
        },
        {
          "indexed": false,
          "internalType": "bool",
          "name": "completed",
          "type": "bool"
        }
      ],
      "name": "TaskCreated",
      "type": "event"
    },
    {
      "constant": true,
      "inputs": [],
      "name": "taskCount",
      "outputs": [
        {
          "internalType": "uint256",
          "name": "",
          "type": "uint256"
        }
      ],
      "payable": false,
      "stateMutability": "view",
      "type": "function"
    },
    {
      "constant": true,
      "inputs": [
        {
          "internalType": "uint256",
          "name": "",
          "type": "uint256"
        }
      ],
      "name": "tasks",
      "outputs": [
        {
          "internalType": "uint256",
          "name": "id",
          "type": "uint256"
        },
        {
          "internalType": "string",
          "name": "content",
          "type": "string"
        },
        {
          "internalType": "uint256",
          "name": "value",
          "type": "uint256"
        },
        {
          "internalType": "bool",
          "name": "completed",
          "type": "bool"
        }
      ],
      "payable": false,
      "stateMutability": "view",
      "type": "function"
    },
    {
      "constant": false,
      "inputs": [
        {
          "internalType": "string",
          "name": "_content",
          "type": "string"
        },
        {
          "internalType": "uint256",
          "name": "j",
          "type": "uint256"
        }
      ],
      "name": "createTask3",
      "outputs": [],
      "payable": false,
      "stateMutability": "nonpayable",
      "type": "function"
    },
    {
      "constant": false,
      "inputs": [],
      "name": "contJ",
      "outputs": [
        {
          "internalType": "uint256",
          "name": "",
          "type": "uint256"
        }
      ],
      "payable": false,
      "stateMutability": "nonpayable",
      "type": "function"
    }
  ],
  "bytecode": "0x60806040526000805534801561001457600080fd5b5060408051808201909152601c81527f436865636b206f75742064617070756e69766572736974792e636f6d00000000602082015261005d9060006001600160e01b0361006216565b610233565b6000805460019081018083556040805160808101825282815260208082018881528284018890526060830187905293865284815291909420845181559151805192936100b693908501929190910190610198565b506040820151816002015560608201518160030160006101000a81548160ff0219169083151502179055509050507f05d0fb833127fc08168556d0e7ca9554fc3f6bc843b3b7d2bf1c35aea6bab660600054836000604051808481526020018060200183151515158152602001828103825284818151815260200191508051906020019080838360005b83811015610158578181015183820152602001610140565b50505050905090810190601f1680156101855780820380516001836020036101000a031916815260200191505b5094505050505060405180910390a15050565b828054600181600116156101000203166002900490600052602060002090601f016020900481019282601f106101d957805160ff1916838001178555610206565b82800160010185558215610206579182015b828111156102065782518255916020019190600101906101eb565b50610212929150610216565b5090565b61023091905b80821115610212576000815560010161021c565b90565b6104c3806102426000396000f3fe608060405234801561001057600080fd5b506004361061004c5760003560e01c8063281273be1461005157806389bcb6a7146100fb5780638d97767214610115578063b6cb58a5146101c0575b600080fd5b6100f96004803603604081101561006757600080fd5b81019060208101813564010000000081111561008257600080fd5b82018360208201111561009457600080fd5b803590602001918460018302840111640100000000831117156100b657600080fd5b91908080601f01602080910402602001604051908101604052809392919081815260200183838082843760009201919091525092955050913592506101c8915050565b005b6101036102fe565b60408051918252519081900360200190f35b6101326004803603602081101561012b57600080fd5b503561033a565b60408051858152908101839052811515606082015260806020808301828152865192840192909252855160a084019187019080838360005b8381101561018257818101518382015260200161016a565b50505050905090810190601f1680156101af5780820380516001836020036101000a031916815260200191505b509550505050505060405180910390f35b6101036103f0565b60008054600190810180835560408051608081018252828152602080820188815282840188905260608301879052938652848152919094208451815591518051929361021c939085019291909101906103f6565b506040820151816002015560608201518160030160006101000a81548160ff0219169083151502179055509050507f05d0fb833127fc08168556d0e7ca9554fc3f6bc843b3b7d2bf1c35aea6bab660600054836000604051808481526020018060200183151515158152602001828103825284818151815260200191508051906020019080838360005b838110156102be5781810151838201526020016102a6565b50505050905090810190601f1680156102eb5780820380516001836020036101000a031916815260200191505b5094505050505060405180910390a15050565b600080805b600054811015610333576000818152600160205260409020546002900661032b576001820191505b600101610303565b5090505b90565b600160208181526000928352604092839020805481840180548651600296821615610100026000190190911695909504601f810185900485028601850190965285855290949193929091908301828280156103d65780601f106103ab576101008083540402835291602001916103d6565b820191906000526020600020905b8154815290600101906020018083116103b957829003601f168201915b50505050600283015460039093015491929160ff16905084565b60005481565b828054600181600116156101000203166002900490600052602060002090601f016020900481019282601f1061043757805160ff1916838001178555610464565b82800160010185558215610464579182015b82811115610464578251825591602001919060010190610449565b50610470929150610474565b5090565b61033791905b80821115610470576000815560010161047a56fea265627a7a723158202e5b3a5ca07524768d729689cf488209841a79949d0c3367ca1757c22bff68f164736f6c63430005100032",
  "source": "\npragma solidity ^0.5.0;\n\ncontract Teste1EscritaLeituraEscritaSeparada {\n  uint public taskCount = 0;\n  \n  struct Task {\n    uint id;\n    string content;\n    uint256 value;\n    bool completed;\n  }\n\n  mapping(uint => Task) public tasks;\n\n  event TaskCreated(\n    uint id,\n    string content,\n    bool completed\n  );\n\n  event TaskCompleted(\n    uint id,\n    bool completed\n  );\n\n  constructor() public {\n    createTask3(\"Check out dappuniversity.com\" , 0);\n  }\n\n  function createTask3(string memory _content , uint256 j) public {\n    taskCount ++;\n\n    tasks[taskCount] = Task(taskCount, _content, j , false );\n    emit TaskCreated(taskCount, _content, false);\n  }\n\n  function contJ() public returns (uint256) {\n\n    uint256 j = 0;\n    for (uint i=0; i<taskCount; i++) {\n      if(tasks[i].id % 2 == 0){\n        j +=1;\n      } \n    }\n    return j;\n  }\n\n}",
  "sourcePath": "/home/ubuntu/ethereum-gas-price-study/ethereum network local/contracts/teste_1/Teste1LeituraEscritaSeparada.sol",
  "compiler": {
    "name": "solc",
    "version": "0.5.16+commit.9c3226ce.Emscripten.clang"
  },
  "schemaVersion": "3.4.1",
  "updatedAt": "2021-05-30T15:23:52.352Z",
  "networkType": "ethereum",
  "devdoc": {
    "methods": {}
  },
  "userdoc": {
    "methods": {}
  }
}