{
  "contractName": "Teste1EscritaLeituraEscritaSeparada",
  "abi": [
    {
      "constant": true,
      "inputs": [
        {
          "name": "",
          "type": "uint256"
        }
      ],
      "name": "tasks",
      "outputs": [
        {
          "name": "id",
          "type": "uint256"
        },
        {
          "name": "content",
          "type": "string"
        },
        {
          "name": "value",
          "type": "uint256"
        },
        {
          "name": "completed",
          "type": "bool"
        }
      ],
      "payable": false,
      "stateMutability": "view",
      "type": "function",
      "signature": "0x8d977672"
    },
    {
      "constant": true,
      "inputs": [],
      "name": "taskCount",
      "outputs": [
        {
          "name": "",
          "type": "uint256"
        }
      ],
      "payable": false,
      "stateMutability": "view",
      "type": "function",
      "signature": "0xb6cb58a5"
    },
    {
      "inputs": [],
      "payable": false,
      "stateMutability": "nonpayable",
      "type": "constructor",
      "signature": "constructor"
    },
    {
      "anonymous": false,
      "inputs": [
        {
          "indexed": false,
          "name": "id",
          "type": "uint256"
        },
        {
          "indexed": false,
          "name": "content",
          "type": "string"
        },
        {
          "indexed": false,
          "name": "completed",
          "type": "bool"
        }
      ],
      "name": "TaskCreated",
      "type": "event",
      "signature": "0x05d0fb833127fc08168556d0e7ca9554fc3f6bc843b3b7d2bf1c35aea6bab660"
    },
    {
      "anonymous": false,
      "inputs": [
        {
          "indexed": false,
          "name": "id",
          "type": "uint256"
        },
        {
          "indexed": false,
          "name": "completed",
          "type": "bool"
        }
      ],
      "name": "TaskCompleted",
      "type": "event",
      "signature": "0xe21fa966ca5cd02748c0752352d18c48165e61cb55b4c29cccf924b5a95fcff1"
    },
    {
      "constant": false,
      "inputs": [
        {
          "name": "_content",
          "type": "string"
        },
        {
          "name": "j",
          "type": "uint256"
        }
      ],
      "name": "createTask3",
      "outputs": [],
      "payable": false,
      "stateMutability": "nonpayable",
      "type": "function",
      "signature": "0x281273be"
    },
    {
      "constant": false,
      "inputs": [],
      "name": "contJ",
      "outputs": [
        {
          "name": "",
          "type": "uint256"
        }
      ],
      "payable": false,
      "stateMutability": "nonpayable",
      "type": "function",
      "signature": "0x89bcb6a7"
    }
  ],
  "bytecode": "0x60806040526000805534801561001457600080fd5b5060408051808201909152601c81527f436865636b206f75742064617070756e69766572736974792e636f6d00000000602082015261005d906000640100000000610062810204565b610233565b6000805460019081018083556040805160808101825282815260208082018881528284018890526060830187905293865284815291909420845181559151805192936100b693908501929190910190610198565b506040820151816002015560608201518160030160006101000a81548160ff0219169083151502179055509050507f05d0fb833127fc08168556d0e7ca9554fc3f6bc843b3b7d2bf1c35aea6bab660600054836000604051808481526020018060200183151515158152602001828103825284818151815260200191508051906020019080838360005b83811015610158578181015183820152602001610140565b50505050905090810190601f1680156101855780820380516001836020036101000a031916815260200191505b5094505050505060405180910390a15050565b828054600181600116156101000203166002900490600052602060002090601f016020900481019282601f106101d957805160ff1916838001178555610206565b82800160010185558215610206579182015b828111156102065782518255916020019190600101906101eb565b50610212929150610216565b5090565b61023091905b80821115610212576000815560010161021c565b90565b610505806102426000396000f3fe6080604052600436106100615763ffffffff7c0100000000000000000000000000000000000000000000000000000000600035041663281273be811461006657806389bcb6a71461011d5780638d97767214610144578063b6cb58a5146101fc575b600080fd5b34801561007257600080fd5b5061011b6004803603604081101561008957600080fd5b8101906020810181356401000000008111156100a457600080fd5b8201836020820111156100b657600080fd5b803590602001918460018302840111640100000000831117156100d857600080fd5b91908080601f0160208091040260200160405190810160405280939291908181526020018383808284376000920191909152509295505091359250610211915050565b005b34801561012957600080fd5b50610132610347565b60408051918252519081900360200190f35b34801561015057600080fd5b5061016e6004803603602081101561016757600080fd5b5035610385565b60408051858152908101839052811515606082015260806020808301828152865192840192909252855160a084019187019080838360005b838110156101be5781810151838201526020016101a6565b50505050905090810190601f1680156101eb5780820380516001836020036101000a031916815260200191505b509550505050505060405180910390f35b34801561020857600080fd5b5061013261043b565b60008054600190810180835560408051608081018252828152602080820188815282840188905260608301879052938652848152919094208451815591518051929361026593908501929190910190610441565b506040820151816002015560608201518160030160006101000a81548160ff0219169083151502179055509050507f05d0fb833127fc08168556d0e7ca9554fc3f6bc843b3b7d2bf1c35aea6bab660600054836000604051808481526020018060200183151515158152602001828103825284818151815260200191508051906020019080838360005b838110156103075781810151838201526020016102ef565b50505050905090810190601f1680156103345780820380516001836020036101000a031916815260200191505b5094505050505060405180910390a15050565b600080805b60005481101561037e57600081815260016020526040902054600290061515610376576001820191505b60010161034c565b5090505b90565b600160208181526000928352604092839020805481840180548651600296821615610100026000190190911695909504601f810185900485028601850190965285855290949193929091908301828280156104215780601f106103f657610100808354040283529160200191610421565b820191906000526020600020905b81548152906001019060200180831161040457829003601f168201915b50505050600283015460039093015491929160ff16905084565b60005481565b828054600181600116156101000203166002900490600052602060002090601f016020900481019282601f1061048257805160ff19168380011785556104af565b828001600101855582156104af579182015b828111156104af578251825591602001919060010190610494565b506104bb9291506104bf565b5090565b61038291905b808211156104bb57600081556001016104c556fea165627a7a7230582034db9170ffe20b16d09c43f818798274dc0cfe805e30132e84a555530b8d35470029",
  "source": "\npragma solidity ^0.5.0;\n\ncontract Teste1EscritaLeituraEscritaSeparada {\n  uint public taskCount = 0;\n  \n  struct Task {\n    uint id;\n    string content;\n    uint256 value;\n    bool completed;\n  }\n\n  mapping(uint => Task) public tasks;\n\n  event TaskCreated(\n    uint id,\n    string content,\n    bool completed\n  );\n\n  event TaskCompleted(\n    uint id,\n    bool completed\n  );\n\n  constructor() public {\n    createTask3(\"Check out dappuniversity.com\" , 0);\n  }\n\n  function createTask3(string memory _content , uint256 j) public {\n    taskCount ++;\n\n    tasks[taskCount] = Task(taskCount, _content, j , false );\n    emit TaskCreated(taskCount, _content, false);\n  }\n\n  function contJ() public returns (uint256) {\n\n    uint256 j = 0;\n    for (uint i=0; i<taskCount; i++) {\n      if(tasks[i].id % 2 == 0){\n        j +=1;\n      } \n    }\n    return j;\n  }\n\n}",
  "sourcePath": "/home/pgc/Documents/ethereum-gas-price-study/ethereum network local/contracts/teste_1/Teste1LeituraEscritaSeparada.sol",
  "compiler": {
    "name": "solc",
    "version": "0.5.0+commit.1d4f565a.Emscripten.clang"
  },
  "schemaVersion": "3.0.1",
  "updatedAt": "2021-05-26T03:39:32.788Z",
  "devdoc": {
    "methods": {}
  },
  "userdoc": {
    "methods": {}
  }
}